{
  "_format": "hh-sol-artifact-1",
  "contractName": "GiftCardContract",
  "sourceName": "contracts/GiftCard.sol",
  "abi": [
    {
      "inputs": [
        {
          "internalType": "address",
          "name": "_tokenAddress",
          "type": "address"
        },
        {
          "internalType": "address",
          "name": "_owner",
          "type": "address"
        }
      ],
      "stateMutability": "nonpayable",
      "type": "constructor"
    },
    {
      "inputs": [],
      "name": "Address_Zero",
      "type": "error"
    },
    {
      "inputs": [],
      "name": "Already_Initialized",
      "type": "error"
    },
    {
      "inputs": [],
      "name": "AmountIs_Zero",
      "type": "error"
    },
    {
      "inputs": [],
      "name": "Card_Already_Claimed",
      "type": "error"
    },
    {
      "inputs": [],
      "name": "ReentrancyGuardReentrantCall",
      "type": "error"
    },
    {
      "inputs": [],
      "name": "Token_NOTExist",
      "type": "error"
    },
    {
      "inputs": [],
      "name": "Transfer_FAILED",
      "type": "error"
    },
    {
      "inputs": [],
      "name": "YOU_Are_Not_AUTHORIZED",
      "type": "error"
    },
    {
      "anonymous": false,
      "inputs": [
        {
          "indexed": false,
          "internalType": "bytes32",
          "name": "cardId",
          "type": "bytes32"
        },
        {
          "indexed": true,
          "internalType": "address",
          "name": "creator",
          "type": "address"
        },
        {
          "indexed": true,
          "internalType": "address",
          "name": "recipient",
          "type": "address"
        },
        {
          "indexed": false,
          "internalType": "uint256",
          "name": "amount",
          "type": "uint256"
        }
      ],
      "name": "GiftCardCreated",
      "type": "event"
    },
    {
      "anonymous": false,
      "inputs": [
        {
          "indexed": false,
          "internalType": "bytes32",
          "name": "cardId",
          "type": "bytes32"
        },
        {
          "indexed": true,
          "internalType": "address",
          "name": "recipient",
          "type": "address"
        },
        {
          "indexed": false,
          "internalType": "uint256",
          "name": "amount",
          "type": "uint256"
        }
      ],
      "name": "GiftCardRedeemed",
      "type": "event"
    },
    {
      "anonymous": false,
      "inputs": [
        {
          "indexed": true,
          "internalType": "address",
          "name": "sender",
          "type": "address"
        },
        {
          "indexed": true,
          "internalType": "address",
          "name": "recipient",
          "type": "address"
        },
        {
          "indexed": false,
          "internalType": "uint256",
          "name": "amount",
          "type": "uint256"
        }
      ],
      "name": "RandomTransfer",
      "type": "event"
    },
    {
      "anonymous": false,
      "inputs": [
        {
          "indexed": true,
          "internalType": "bytes32",
          "name": "cardId",
          "type": "bytes32"
        },
        {
          "indexed": true,
          "internalType": "address",
          "name": "creator",
          "type": "address"
        },
        {
          "indexed": false,
          "internalType": "uint256",
          "name": "amount",
          "type": "uint256"
        }
      ],
      "name": "Refund",
      "type": "event"
    },
    {
      "inputs": [
        {
          "internalType": "address",
          "name": "",
          "type": "address"
        },
        {
          "internalType": "uint256",
          "name": "",
          "type": "uint256"
        }
      ],
      "name": "_bytes32",
      "outputs": [
        {
          "internalType": "bytes32",
          "name": "",
          "type": "bytes32"
        }
      ],
      "stateMutability": "view",
      "type": "function"
    },
    {
      "inputs": [
        {
          "internalType": "bytes32",
          "name": "",
          "type": "bytes32"
        }
      ],
      "name": "_giftCard",
      "outputs": [
        {
          "internalType": "uint256",
          "name": "poolBalance",
          "type": "uint256"
        },
        {
          "internalType": "address",
          "name": "owner",
          "type": "address"
        },
        {
          "internalType": "bool",
          "name": "isRedeem",
          "type": "bool"
        },
        {
          "internalType": "address",
          "name": "recipient",
          "type": "address"
        },
        {
          "internalType": "string",
          "name": "mail",
          "type": "string"
        },
        {
          "internalType": "address",
          "name": "token",
          "type": "address"
        }
      ],
      "stateMutability": "view",
      "type": "function"
    },
    {
      "inputs": [
        {
          "internalType": "address",
          "name": "",
          "type": "address"
        }
      ],
      "name": "_giftCardSig",
      "outputs": [
        {
          "internalType": "bytes32",
          "name": "",
          "type": "bytes32"
        }
      ],
      "stateMutability": "view",
      "type": "function"
    },
    {
      "inputs": [
        {
          "internalType": "address",
          "name": "",
          "type": "address"
        }
      ],
      "name": "allowedTokens",
      "outputs": [
        {
          "internalType": "bool",
          "name": "",
          "type": "bool"
        }
      ],
      "stateMutability": "view",
      "type": "function"
    },
    {
      "inputs": [
        {
          "internalType": "address[]",
          "name": "_recipients",
          "type": "address[]"
        },
        {
          "internalType": "uint256[]",
          "name": "_amounts",
          "type": "uint256[]"
        },
        {
          "internalType": "string[]",
          "name": "mail",
          "type": "string[]"
        },
        {
          "internalType": "address",
          "name": "_tokenAddress",
          "type": "address"
        }
      ],
      "name": "createBatchGiftCards",
      "outputs": [],
      "stateMutability": "nonpayable",
      "type": "function"
    },
    {
      "inputs": [
        {
          "internalType": "address",
          "name": "_recipient",
          "type": "address"
        },
        {
          "internalType": "uint256",
          "name": "amount",
          "type": "uint256"
        },
        {
          "internalType": "address",
          "name": "tokenAddress",
          "type": "address"
        },
        {
          "internalType": "string",
          "name": "_mail",
          "type": "string"
        }
      ],
      "name": "createGiftcard",
      "outputs": [],
      "stateMutability": "nonpayable",
      "type": "function"
    },
    {
      "inputs": [
        {
          "internalType": "bytes32",
          "name": "cardId",
          "type": "bytes32"
        }
      ],
      "name": "getGiftCardDetails",
      "outputs": [
        {
          "internalType": "uint256",
          "name": "poolBalance",
          "type": "uint256"
        },
        {
          "internalType": "address",
          "name": "owner",
          "type": "address"
        },
        {
          "internalType": "bool",
          "name": "isRedeem",
          "type": "bool"
        },
        {
          "internalType": "address",
          "name": "recipient",
          "type": "address"
        },
        {
          "internalType": "string",
          "name": "mail",
          "type": "string"
        },
        {
          "internalType": "address",
          "name": "token",
          "type": "address"
        }
      ],
      "stateMutability": "view",
      "type": "function"
    },
    {
      "inputs": [
        {
          "internalType": "address",
          "name": "user",
          "type": "address"
        }
      ],
      "name": "getGiftCardsForAddress",
      "outputs": [
        {
          "internalType": "bytes32[]",
          "name": "",
          "type": "bytes32[]"
        }
      ],
      "stateMutability": "view",
      "type": "function"
    },
    {
      "inputs": [],
      "name": "giftCount",
      "outputs": [
        {
          "internalType": "uint256",
          "name": "",
          "type": "uint256"
        }
      ],
      "stateMutability": "view",
      "type": "function"
    },
    {
      "inputs": [],
      "name": "ownerAccount",
      "outputs": [
        {
          "internalType": "address",
          "name": "",
          "type": "address"
        }
      ],
      "stateMutability": "view",
      "type": "function"
    },
    {
      "inputs": [
        {
          "internalType": "bytes32",
          "name": "_cardId",
          "type": "bytes32"
        }
      ],
      "name": "redeemGiftCard",
      "outputs": [],
      "stateMutability": "nonpayable",
      "type": "function"
    },
    {
      "inputs": [
        {
          "internalType": "bytes32",
          "name": "_cardId",
          "type": "bytes32"
        }
      ],
      "name": "refundGiftCard",
      "outputs": [],
      "stateMutability": "nonpayable",
      "type": "function"
    },
    {
      "inputs": [
        {
          "internalType": "address[]",
          "name": "recipients",
          "type": "address[]"
        },
        {
          "internalType": "uint256",
          "name": "amount",
          "type": "uint256"
        },
        {
          "internalType": "address",
          "name": "tokenAddress",
          "type": "address"
        }
      ],
      "name": "transferRandom",
      "outputs": [],
      "stateMutability": "nonpayable",
      "type": "function"
    },
    {
      "inputs": [
        {
          "internalType": "address",
          "name": "",
          "type": "address"
        },
        {
          "internalType": "uint256",
          "name": "",
          "type": "uint256"
        }
      ],
      "name": "userGiftCards",
      "outputs": [
        {
          "internalType": "bytes32",
          "name": "",
          "type": "bytes32"
        }
      ],
      "stateMutability": "view",
      "type": "function"
    }
  ],
  "bytecode": "0x608034609b57601f6115e738819003918201601f19168301916001600160401b0383118484101760a0578084926040948552833981010312609b57604b602060458360b6565b920160b6565b600160008181556001600160a01b0393841681526005602052604090819020805460ff1916909217909155600280546001600160a01b031916939092169290921790555161151d90816100ca8239f35b600080fd5b634e487b7160e01b600052604160045260246000fd5b51906001600160a01b0382168203609b5756fe608080604052600436101561001357600080fd5b60003560e01c90816314eb4947146111195750806323b6570e14610d555780633e27253414610cfc5780634087ccd114610cc2578063647dd99714610c0c5780637278300c146109ec578063854dccd914610874578063b1b68440146106fc578063bbbb3ed114610688578063c621e27814610640578063d5b2666d14610144578063e744092e14610105578063ea47cb24146100dc5763ed700374146100b957600080fd5b346100d75760003660031901126100d7576020600154604051908152f35b600080fd5b346100d75760003660031901126100d7576002546040516001600160a01b039091168152602090f35b346100d75760203660031901126100d7576001600160a01b036101266111d0565b166000526005602052602060ff604060002054166040519015158152f35b346100d75760803660031901126100d7576004356001600160401b0381116100d757610174903690600401611325565b906024356001600160401b0381116100d757610194903690600401611325565b90604435916001600160401b0383116100d757366023840112156100d7578260040135926001600160401b038411610557578360051b90604051946101dc6020840187611217565b855260246020860192820101903682116100d75760248101925b828410610611575050506064356001600160a01b0381169691508690036100d7578181036105bd573360601b9460005b82811061022f57005b61026b602061023f8387896114c3565b6040516323b872dd60e01b81523360048201523060248201529035604482015291829081906064820190565b038160008d5af180156105b15761028a91600091610583575b50611485565b61029d6102988285856114c3565b6114d3565b60405160208101918983526bffffffffffffffffffffffff199060601b166034820152426048820152826068820152606881526102db608882611217565b5190206102e98286886114c3565b356102f86102988487876114c3565b885184101561056d578a9060208560051b8b010151906040519361031b856111fc565b8452336020808601918252600060408088018281526001600160a01b0395861660608a0190815260808a0197885260a0808b01998a528b855260039095529190922097518855925160018801805492516001600160a81b0319909316919095161790151590911b60ff60a01b1617909155516002840180546001600160a01b0319166001600160a01b039290921691909117905551805160038401916001600160401b038211610557576103cf8354611355565b601f811161050f575b50602090601f8311600114610495579180600494926001999897969460009261048a575b5050600019600383901b1c191690881b1790555b51910180546001600160a01b03191660a086901b8690039290921691909117905561043f6102988387876114c3565b61044a83888a6114c3565b356040519283526020830152838060a01b0316907f6fcc884adf432697be4ac53492cb0629dc3c72aeb6f919f4382e1323013eca4360403392a301610226565b0151905038806103fc565b90601f9e9d9c9b9e1983169184600052816000209260005b8181106104f75750929e9f9c9d9e6001999897969491928a938360049896106104de575b505050811b019055610410565b015160001960f88460031b161c191690553880806104d1565b929360206001819287860151815501950193016104ad565b836000526020600020601f840160051c8101916020851061054d575b601f0160051c01905b81811061054157506103d8565b60008155600101610534565b909150819061052b565b634e487b7160e01b600052604160045260246000fd5b634e487b7160e01b600052603260045260246000fd5b6105a4915060203d81116105aa575b61059c8183611217565b810190611433565b8a610284565b503d610592565b6040513d6000823e3d90fd5b60405162461bcd60e51b815260206004820152602660248201527f526563697069656e747320616e6420616d6f756e7473206c656e677468206d696044820152650e6dac2e8c6d60d31b6064820152608490fd5b83356001600160401b0381116100d757602091610635839260243691870101611238565b8152019301926101f6565b346100d75760403660031901126100d7576001600160a01b036106616111d0565b16600052600660205260406000206024356000526020526020604060002054604051908152f35b346100d75760203660031901126100d7576004356000526003602052604060002080546106f860018301549260018060a01b03600282015416906106ce6003820161138f565b6004909101546040519586956001600160a01b03928316949260a083901c60ff16921690876112a6565b0390f35b346100d75760203660031901126100d757600435600260005414610863576002600055806000526003602052604060002060018101805460ff8160a01c166108525760028301546001600160a01b031633036108415760ff60a01b1916600160a01b17905580546005808202918015908304909114171561082b576004918201546040516323b872dd60e01b8152339381019390935230602484015260649182900460448401819052929160209183919082906000906001600160a01b03165af180156105b1576107d49160009161080c5750611485565b60405191825260208201527fa124d1cab668a91aedc78054274c4b5389f0eb70de9aedd3b2fa13068fd7234060403392a26001600055005b610825915060203d6020116105aa5761059c8183611217565b84610284565b634e487b7160e01b600052601160045260246000fd5b6362baf06f60e01b60005260046000fd5b6340df188f60e11b60005260046000fd5b633ee5aeb560e01b60005260046000fd5b346100d75760203660031901126100d7576004356000818152600360205260409020600181018054929190336001600160a01b038516036109a75760ff8460a01c1661096a578154600a810290808204600a149015171561082b57600080845560ff60a01b1995909516600160a01b1790915560049182015460405163a9059cbb60e01b815233938101939093526064909104602483018190529360209183916044918391906001600160a01b03165af180156105b15761093c9160009161080c5750611485565b6040519182527f668cb0582f35d8cc1e62959951f2b36e581df3c31a96a7ff714883facb8fef0760203393a3005b60405162461bcd60e51b815260206004820152601560248201527410d85c9908185b1c9958591e481c995919595b5959605a1b6044820152606490fd5b60405162461bcd60e51b815260206004820152601760248201527f4f6e6c792063726561746f722063616e20726566756e640000000000000000006044820152606490fd5b346100d75760603660031901126100d7576004356001600160401b0381116100d757610a1c903690600401611325565b9060243590610a296111e6565b8315610bce576040516323b872dd60e01b8152336004820152306024820152604481018490526001600160a01b0391909116916020826064816000875af19081156105b157610a8661029892610abe94600091610baf5750611485565b60405160208101904282524460408201523360601b606082015260548152610aaf607482611217565b519020958060009706916114c3565b60405163a9059cbb60e01b81526001600160a01b03821660048201526024810184905290916020908290604490829088905af1908115610ba4578491610b85575b5015610b40576040519182526001600160a01b03169033907fa7b4eb20b2d6e1a51afe12c47f93eec7480a5547834b5f80438885b3a3619a3890602090a380f35b60405162461bcd60e51b815260206004820152601c60248201527f5472616e7366657220746f20726563697069656e74206661696c6564000000006044820152606490fd5b610b9e915060203d6020116105aa5761059c8183611217565b84610aff565b6040513d86823e3d90fd5b610bc8915060203d6020116105aa5761059c8183611217565b88610284565b60405162461bcd60e51b8152602060048201526016602482015275139bc81c9958da5c1a595b9d1cc81c1c9bdd9a59195960521b6044820152606490fd5b346100d75760203660031901126100d7576004356000526003602052604060002060405190610c3a826111fc565b805482526106f8600182015492602081019260018060a01b038516845260ff604083019560a01c161515855260018060a01b0360028201541660608301908152610c866003830161138f565b608084018190526004909201546001600160a01b0390811660a085018190529351955196519151604051978897918316931515921690876112a6565b346100d75760203660031901126100d7576001600160a01b03610ce36111d0565b1660005260046020526020604060002054604051908152f35b346100d75760403660031901126100d757610d156111d0565b6001600160a01b03166000908152600760205260409020805460243591908210156100d757602091610d469161128e565b90549060031b1c604051908152f35b346100d75760803660031901126100d757610d6e6111d0565b602435610d796111e6565b906064356001600160401b0381116100d757610d99903690600401611238565b918115611108576001600160a01b03169182156110f75782600052600560205260ff60406000205416156110e6576040516323b872dd60e01b8152336004820152306024820152604481018390526020816064816000885af19081156105b1576000916110c7575b50156110905760405160208101903360601b825260018060a01b038616956bffffffffffffffffffffffff199060601b16603482015242604882015260488152610e4c606882611217565b5190209260405191610e5d836111fc565b83835233602080850191825260006040808701828152606088018b81526080890196875260a0808a019889528b855260039095529190922096518755925160018701805492516001600160a81b03199093166001600160a01b03929092169190911791151590921b60ff60a01b16179055516002840180546001600160a01b0319166001600160a01b039290921691909117905551805160038401916001600160401b03821161055757610f118354611355565b601f8111611048575b50602090601f8311600114610fdd5760049493929160009183610fd2575b50508160011b916000199060031b1c19161790555b51910180546001600160a01b0319166001600160a01b0392909216919091179055336000908152600760205260409020610f8890839061144b565b826000526007602052610f9f82604060002061144b565b60405191825260208201527f6fcc884adf432697be4ac53492cb0629dc3c72aeb6f919f4382e1323013eca4360403392a3005b015190508980610f38565b90601f1983169184600052816000209260005b818110611030575091600193918560049897969410611017575b505050811b019055610f4d565b015160001960f88460031b161c1916905589808061100a565b92936020600181928786015181550195019301610ff0565b836000526020600020601f840160051c81019160208510611086575b601f0160051c01905b81811061107a5750610f1a565b6000815560010161106d565b9091508190611064565b60405162461bcd60e51b815260206004820152600f60248201526e15185c9b9cd9995c8811985a5b1959608a1b6044820152606490fd5b6110e0915060203d6020116105aa5761059c8183611217565b85610e01565b6326af2d0360e11b60005260046000fd5b63cb175ac960e01b60005260046000fd5b63044697ff60e21b60005260046000fd5b346100d75760203660031901126100d7576001600160a01b0361113a6111d0565b16600052600760205260406000209081548082526020820190819360005260206000209060005b8181106111ba5750505081611177910382611217565b6040519182916020830190602084525180915260408301919060005b8181106111a1575050500390f35b8251845285945060209384019390920191600101611193565b8254845260209093019260019283019201611161565b600435906001600160a01b03821682036100d757565b604435906001600160a01b03821682036100d757565b60c081019081106001600160401b0382111761055757604052565b90601f801991011681019081106001600160401b0382111761055757604052565b81601f820112156100d7578035906001600160401b038211610557576040519261126c601f8401601f191660200185611217565b828452602083830101116100d757816000926020809301838601378301015290565b805482101561056d5760005260206000200190600090565b9081526001600160a01b0391821660208201529115156040830152909116606082015260c0608082018190528251908201819052929392909160005b82811061130f57505060e08160008260a09486010152601f801991011683010193600180831b0316910152565b80602080928401015160e08287010152016112e2565b9181601f840112156100d7578235916001600160401b0383116100d7576020808501948460051b0101116100d757565b90600182811c92168015611385575b602083101461136f57565b634e487b7160e01b600052602260045260246000fd5b91607f1691611364565b90604051918260008254926113a384611355565b808452936001811690811561141157506001146113ca575b506113c892500383611217565b565b90506000929192526020600020906000915b8183106113f55750509060206113c892820101386113bb565b60209193508060019154838589010152019101909184926113dc565b9050602092506113c894915060ff191682840152151560051b820101386113bb565b908160209103126100d7575180151581036100d75790565b8054680100000000000000008110156105575761146d9160018201815561128e565b819291549060031b91821b91600019901b1916179055565b1561148c57565b60405162461bcd60e51b815260206004820152600f60248201526e151c985b9cd9995c8819985a5b1959608a1b6044820152606490fd5b919081101561056d5760051b0190565b356001600160a01b03811681036100d7579056fea264697066735822122064415630aa100fa409cc5f0106db98cbe9553e2f17bec7d15b09fc3ea127d74364736f6c634300081c0033",
  "linkReferences": {},
  "deployedLinkReferences": {}
}